{
  "_format": "hh-sol-artifact-1",
  "contractName": "Collection",
  "sourceName": "contracts/Docchain.sol",
  "abi": [
    {
      "inputs": [],
      "stateMutability": "nonpayable",
      "type": "constructor"
    },
    {
      "inputs": [
        {
          "internalType": "address",
          "name": "",
          "type": "address"
        }
      ],
      "name": "collectionsNames",
      "outputs": [
        {
          "internalType": "string",
          "name": "",
          "type": "string"
        }
      ],
      "stateMutability": "view",
      "type": "function"
    },
    {
      "inputs": [
        {
          "internalType": "string",
          "name": "name",
          "type": "string"
        }
      ],
      "name": "createNewCollection",
      "outputs": [
        {
          "internalType": "address",
          "name": "",
          "type": "address"
        }
      ],
      "stateMutability": "nonpayable",
      "type": "function"
    },
    {
      "inputs": [
        {
          "internalType": "address",
          "name": "_owner",
          "type": "address"
        }
      ],
      "name": "getCollectionsOfOwner",
      "outputs": [
        {
          "internalType": "address[]",
          "name": "",
          "type": "address[]"
        }
      ],
      "stateMutability": "view",
      "type": "function"
    },
    {
      "inputs": [],
      "name": "getFee",
      "outputs": [
        {
          "internalType": "uint256",
          "name": "",
          "type": "uint256"
        }
      ],
      "stateMutability": "view",
      "type": "function"
    },
    {
      "inputs": [],
      "name": "getOwner",
      "outputs": [
        {
          "internalType": "address",
          "name": "",
          "type": "address"
        }
      ],
      "stateMutability": "view",
      "type": "function"
    },
    {
      "inputs": [
        {
          "internalType": "address",
          "name": "",
          "type": "address"
        }
      ],
      "name": "ownerOfCollection",
      "outputs": [
        {
          "internalType": "address",
          "name": "",
          "type": "address"
        }
      ],
      "stateMutability": "view",
      "type": "function"
    },
    {
      "inputs": [
        {
          "internalType": "uint256",
          "name": "_fee",
          "type": "uint256"
        }
      ],
      "name": "updateFee",
      "outputs": [],
      "stateMutability": "nonpayable",
      "type": "function"
    }
  ],
  "bytecode": "0x608060405234801561001057600080fd5b50600080546001600160a01b031916331790556122e0806100326000396000f3fe608060405234801561001057600080fd5b506004361061007d5760003560e01c80639012c4a81161005b5780639012c4a8146100ec578063ab226c6a14610101578063c6c9e27514610121578063ced72f871461014157600080fd5b80631270a638146100825780637a309b97146100b2578063893d20e8146100db575b600080fd5b61009561009036600461034a565b610152565b6040516001600160a01b0390911681526020015b60405180910390f35b6100956100c03660046103fb565b6002602052600090815260409020546001600160a01b031681565b6000546001600160a01b0316610095565b6100ff6100fa36600461042b565b6101fb565b005b61011461010f3660046103fb565b610217565b6040516100a99190610444565b61013461012f3660046103fb565b61028d565b6040516100a99190610491565b6001546040519081526020016100a9565b6000803060405161016290610327565b6001600160a01b039091168152602001604051809103906000f08015801561018e573d6000803e3d6000fd5b5033600081815260036020908152604080832080546001810182559084528284200180546001600160a01b0387166001600160a01b0319918216811790925590845260028352818420805490911690941790935560049052209091506101f48482610568565b5092915050565b6000546001600160a01b0316331461021257600080fd5b600155565b6001600160a01b03811660009081526003602090815260409182902080548351818402810184019094528084526060939283018282801561028157602002820191906000526020600020905b81546001600160a01b03168152600190910190602001808311610263575b50505050509050919050565b600460205260009081526040902080546102a6906104df565b80601f01602080910402602001604051908101604052809291908181526020018280546102d2906104df565b801561031f5780601f106102f45761010080835404028352916020019161031f565b820191906000526020600020905b81548152906001019060200180831161030257829003601f168201915b505050505081565b611c828061062983390190565b634e487b7160e01b600052604160045260246000fd5b60006020828403121561035c57600080fd5b813567ffffffffffffffff8082111561037457600080fd5b818401915084601f83011261038857600080fd5b81358181111561039a5761039a610334565b604051601f8201601f19908116603f011681019083821181831017156103c2576103c2610334565b816040528281528760208487010111156103db57600080fd5b826020860160208301376000928101602001929092525095945050505050565b60006020828403121561040d57600080fd5b81356001600160a01b038116811461042457600080fd5b9392505050565b60006020828403121561043d57600080fd5b5035919050565b6020808252825182820181905260009190848201906040850190845b818110156104855783516001600160a01b031683529284019291840191600101610460565b50909695505050505050565b600060208083528351808285015260005b818110156104be578581018301518582016040015282016104a2565b506000604082860101526040601f19601f8301168501019250505092915050565b600181811c908216806104f357607f821691505b60208210810361051357634e487b7160e01b600052602260045260246000fd5b50919050565b601f82111561056357600081815260208120601f850160051c810160208610156105405750805b601f850160051c820191505b8181101561055f5782815560010161054c565b5050505b505050565b815167ffffffffffffffff81111561058257610582610334565b6105968161059084546104df565b84610519565b602080601f8311600181146105cb57600084156105b35750858301515b600019600386901b1c1916600185901b17855561055f565b600085815260208120601f198616915b828110156105fa578886015182559484019460019091019084016105db565b50858210156106185787850151600019600388901b60f8161c191681555b5050505050600190811b0190555056fe60806040523480156200001157600080fd5b5060405162001c8238038062001c828339810160408190526200003491620000c3565b604051806040016040528060088152602001672237b1b1b430b4b760c11b8152506040518060400160405280600381526020016214d09560ea1b81525081600090816200008291906200019a565b5060016200009182826200019a565b5050600680546001600160a01b039093166001600160a01b031993841617905550600780549091163217905562000266565b600060208284031215620000d657600080fd5b81516001600160a01b0381168114620000ee57600080fd5b9392505050565b634e487b7160e01b600052604160045260246000fd5b600181811c908216806200012057607f821691505b6020821081036200014157634e487b7160e01b600052602260045260246000fd5b50919050565b601f8211156200019557600081815260208120601f850160051c81016020861015620001705750805b601f850160051c820191505b8181101562000191578281556001016200017c565b5050505b505050565b81516001600160401b03811115620001b657620001b6620000f5565b620001ce81620001c784546200010b565b8462000147565b602080601f831160018114620002065760008415620001ed5750858301515b600019600386901b1c1916600185901b17855562000191565b600085815260208120601f198616915b82811015620002375788860151825594840194600190910190840162000216565b5085821015620002565787850151600019600388901b60f8161c191681555b5050505050600190811b01905550565b611a0c80620002766000396000f3fe6080604052600436106100c25760003560e01c806370a082311161007f578063c643728611610059578063c64372861461021f578063c87b56dd1461023f578063dc819d881461025f578063f76c5f821461027f57600080fd5b806370a08231146101c85780637253626a146101e857806395d89b411461020a57600080fd5b806301ffc9a7146100c757806306fdde03146100fc5780630fb019b21461011e57806337f902f014610140578063547752281461016f5780636352211e14610190575b600080fd5b3480156100d357600080fd5b506100e76100e23660046113f1565b61029f565b60405190151581526020015b60405180910390f35b34801561010857600080fd5b506101116102f1565b6040516100f3919061146b565b34801561012a57600080fd5b5061013e61013936600461150a565b610383565b005b34801561014c57600080fd5b5061016061015b36600461157a565b61060a565b6040516100f393929190611597565b61018261017d3660046115eb565b6106bf565b6040519081526020016100f3565b34801561019c57600080fd5b506101b06101ab36600461163d565b6109e4565b6040516001600160a01b0390911681526020016100f3565b3480156101d457600080fd5b506101826101e336600461157a565b610a63565b3480156101f457600080fd5b506101fd610af2565b6040516100f39190611656565b34801561021657600080fd5b50610111610b19565b34801561022b57600080fd5b5061018261023a3660046116a3565b610b28565b34801561024b57600080fd5b5061011161025a36600461163d565b610b60565b34801561026b57600080fd5b5061018261027a3660046116fc565b610cf2565b34801561028b57600080fd5b5061013e61029a36600461163d565b610d3b565b60006001600160e01b031982166313f2a32f60e01b14806102d057506001600160e01b03198216635b5e139f60e01b145b806102eb57506301ffc9a760e01b6001600160e01b03198316145b92915050565b60606000805461030090611731565b80601f016020809104026020016040519081016040528092919081815260200182805461032c90611731565b80156103795780601f1061034e57610100808354040283529160200191610379565b820191906000526020600020905b81548152906001019060200180831161035c57829003601f168201915b5050505050905090565b60006103dc836040517f19457468657265756d205369676e6564204d6573736167653a0a3332000000006020820152603c8101829052600090605c01604051602081830303815290604052805190602001209050919050565b905060008060006103ec85610da7565b925092509250600060018583868660405160008152602001604052604051610430949392919093845260ff9290921660208401526040830152606082015260800190565b6020604051602081039080840390855afa158015610452573d6000803e3d6000fd5b505060408051601f198101516001600160a01b038082166000908152600a60209081528582206060860190965285549092168452600185018054939750909550929392908401916104a290611731565b80601f01602080910402602001604051908101604052809291908181526020018280546104ce90611731565b801561051b5780601f106104f05761010080835404028352916020019161051b565b820191906000526020600020905b8154815290600101906020018083116104fe57829003601f168201915b50505091835250506002919091015460209091015280519091506001600160a01b031633146105a25760405162461bcd60e51b815260206004820152602860248201527f6f6e6c792074686520696e7465726d656469617465206f776e65722063616e206044820152671b5a5b9d0814d09560c21b60648201526084015b60405180910390fd5b6105b0828260400151610e1b565b6105c281604001518260200151610fb3565b6001600160a01b0382166000908152600a6020526040812080546001600160a01b0319168155906105f660018301826113a3565b600282016000905550505050505050505050565b600a60205260009081526040902080546001820180546001600160a01b03909216929161063690611731565b80601f016020809104026020016040519081016040528092919081815260200182805461066290611731565b80156106af5780601f10610684576101008083540402835291602001916106af565b820191906000526020600020905b81548152906001019060200180831161069257829003601f168201915b5050505050908060020154905083565b6007546000906001600160a01b031633146106d957600080fd5b600660009054906101000a90046001600160a01b03166001600160a01b031663893d20e86040518163ffffffff1660e01b8152600401602060405180830381865afa15801561072c573d6000803e3d6000fd5b505050506040513d601f19601f82011682018060405250810190610750919061176b565b50600660009054906101000a90046001600160a01b03166001600160a01b031663ced72f876040518163ffffffff1660e01b8152600401602060405180830381865afa1580156107a4573d6000803e3d6000fd5b505050506040513d601f19601f820116820180604052508101906107c89190611788565b34116108095760405162461bcd60e51b815260206004820152601060248201526f0acc2d8eaca40dcdee840cadcdeeaced60831b6044820152606401610599565b600660009054906101000a90046001600160a01b03166001600160a01b031663893d20e86040518163ffffffff1660e01b8152600401602060405180830381865afa15801561085c573d6000803e3d6000fd5b505050506040513d601f19601f82011682018060405250810190610880919061176b565b6001600160a01b03166108fc349081150290604051600060405180830381858888f193505050501580156108b8573d6000803e3d6000fd5b506108c7600980546001019055565b60006108d260095490565b9050610901604051806060016040528060006001600160a01b0316815260200160608152602001600081525090565b600660009054906101000a90046001600160a01b03166001600160a01b031663893d20e86040518163ffffffff1660e01b8152600401602060405180830381865afa158015610954573d6000803e3d6000fd5b505050506040513d601f19601f82011682018060405250810190610978919061176b565b6001600160a01b039081168252602080830187815260408085018690528784166000908152600a909352909120835181546001600160a01b03191693169290921782555182919060018201906109ce90826117ef565b5060409190910151600290910155509392505050565b6000818152600260205260408120546001600160a01b0316806102eb5760405162461bcd60e51b815260206004820152603160248201527f4552433732314d6f6469666965643a206f776e657220717565727920666f72206044820152703737b732bc34b9ba32b73a103a37b5b2b760791b6064820152608401610599565b60006001600160a01b038216610ad65760405162461bcd60e51b815260206004820152603260248201527f4552433732314d6f6469666965643a2062616c616e636520717565727920666f6044820152717220746865207a65726f206164647265737360701b6064820152608401610599565b506001600160a01b031660009081526003602052604090205490565b6007546060906001600160a01b03163314610b0c57600080fd5b610b14611053565b905090565b60606001805461030090611731565b600083838330604051602001610b4194939291906118af565b6040516020818303038152906040528051906020012090509392505050565b6000818152600260205260409020546060906001600160a01b0316610bed5760405162461bcd60e51b815260206004820152603960248201527f45524337323155524953746f726167654d6f6469666965643a2055524920717560448201527f65727920666f72206e6f6e6578697374656e7420746f6b656e000000000000006064820152608401610599565b60008281526005602052604081208054610c0690611731565b80601f0160208091040260200160405190810160405280929190818152602001828054610c3290611731565b8015610c7f5780601f10610c5457610100808354040283529160200191610c7f565b820191906000526020600020905b815481529060010190602001808311610c6257829003601f168201915b505050505090506000610c9d60408051602081019091526000815290565b90508051600003610caf575092915050565b815115610ce1578082604051602001610cc99291906118fe565b60405160208183030381529060405292505050919050565b610cea846110b4565b949350505050565b6007546000906001600160a01b03163314610d0c57600080fd5b610d1a600980546001019055565b6000610d2560095490565b9050610d313382610e1b565b6102eb8184610fb3565b33610d45826109e4565b6001600160a01b031614610d9b5760405162461bcd60e51b815260206004820181905260248201527f4f6e6c79206f776e6572206f6620746f6b656e2063616e206275726e205342546044820152606401610599565b610da48161119c565b50565b60008060008351604114610dfd5760405162461bcd60e51b815260206004820152601860248201527f696e76616c6964207369676e6174757265206c656e67746800000000000000006044820152606401610599565b50505060208101516040820151606090920151909260009190911a90565b6001600160a01b038216610e825760405162461bcd60e51b815260206004820152602860248201527f4552433732314d6f6469666965643a206d696e7420746f20746865207a65726f604482015267206164647265737360c01b6064820152608401610599565b6000818152600260205260409020546001600160a01b031615610ef35760405162461bcd60e51b8152602060048201526024808201527f4552433732314d6f6469666965643a20746f6b656e20616c7265616479206d696044820152631b9d195960e21b6064820152608401610599565b6001600160a01b0382166000908152600360205260408120805460019290610f1c908490611943565b909155505060008181526002602052604080822080546001600160a01b0386166001600160a01b03199182168117909255600480546001810182559085527f8a35acfbc15ff81a39ae7d344fd709f28e8600b4aa8c65c6b64bfe7fe36bd19b0180549091168217905590518392907fddf252ad1be2c89b69c2b068fc378daa952ba7f163c4a11628f55a4df523b3ef908290a45050565b6000828152600260205260409020546001600160a01b03166110365760405162461bcd60e51b815260206004820152603660248201527f45524337323155524953746f726167654d6f6469666965643a205552492073656044820152753a1037b3103737b732bc34b9ba32b73a103a37b5b2b760511b6064820152608401610599565b600082815260056020526040902061104e82826117ef565b505050565b6060600480548060200260200160405190810160405280929190818152602001828054801561037957602002820191906000526020600020905b81546001600160a01b0316815260019091019060200180831161108d575050505050905090565b6000818152600260205260409020546060906001600160a01b03166111335760405162461bcd60e51b815260206004820152602f60248201527f4552433732314d657461646174613a2055524920717565727920666f72206e6f60448201526e3732bc34b9ba32b73a103a37b5b2b760891b6064820152608401610599565b600061114a60408051602081019091526000815290565b9050600081511161116a5760405180602001604052806000815250611195565b80611174846111dc565b6040516020016111859291906118fe565b6040516020818303038152906040525b9392505050565b6111a5816112dd565b600081815260056020526040902080546111be90611731565b159050610da4576000818152600560205260408120610da4916113a3565b6060816000036112035750506040805180820190915260018152600360fc1b602082015290565b8160005b811561122d578061121781611956565b91506112269050600a83611985565b9150611207565b60008167ffffffffffffffff8111156112485761124861147e565b6040519080825280601f01601f191660200182016040528015611272576020820181803683370190505b5090505b8415610cea57611287600183611999565b9150611294600a866119ac565b61129f906030611943565b60f81b8183815181106112b4576112b46119c0565b60200101906001600160f81b031916908160001a9053506112d6600a86611985565b9450611276565b60006112e8826109e4565b90506001600160a01b0381166000908152600360205260408120805460019290611313908490611999565b9091555050600082815260026020526040902080546001600160a01b03191690556004611341600184611999565b81548110611351576113516119c0565b6000918252602082200180546001600160a01b03191690556040518391906001600160a01b038416907fddf252ad1be2c89b69c2b068fc378daa952ba7f163c4a11628f55a4df523b3ef908390a45050565b5080546113af90611731565b6000825580601f106113bf575050565b601f016020900490600052602060002090810190610da491905b808211156113ed57600081556001016113d9565b5090565b60006020828403121561140357600080fd5b81356001600160e01b03198116811461119557600080fd5b60005b8381101561143657818101518382015260200161141e565b50506000910152565b6000815180845261145781602086016020860161141b565b601f01601f19169290920160200192915050565b602081526000611195602083018461143f565b634e487b7160e01b600052604160045260246000fd5b600067ffffffffffffffff808411156114af576114af61147e565b604051601f8501601f19908116603f011681019082821181831017156114d7576114d761147e565b816040528093508581528686860111156114f057600080fd5b858560208301376000602087830101525050509392505050565b6000806040838503121561151d57600080fd5b82359150602083013567ffffffffffffffff81111561153b57600080fd5b8301601f8101851361154c57600080fd5b61155b85823560208401611494565b9150509250929050565b6001600160a01b0381168114610da457600080fd5b60006020828403121561158c57600080fd5b813561119581611565565b6001600160a01b03841681526060602082018190526000906115bb9083018561143f565b9050826040830152949350505050565b600082601f8301126115dc57600080fd5b61119583833560208501611494565b600080604083850312156115fe57600080fd5b823567ffffffffffffffff81111561161557600080fd5b611621858286016115cb565b925050602083013561163281611565565b809150509250929050565b60006020828403121561164f57600080fd5b5035919050565b6020808252825182820181905260009190848201906040850190845b818110156116975783516001600160a01b031683529284019291840191600101611672565b50909695505050505050565b6000806000606084860312156116b857600080fd5b83356116c381611565565b925060208401359150604084013567ffffffffffffffff8111156116e657600080fd5b6116f2868287016115cb565b9150509250925092565b60006020828403121561170e57600080fd5b813567ffffffffffffffff81111561172557600080fd5b610cea848285016115cb565b600181811c9082168061174557607f821691505b60208210810361176557634e487b7160e01b600052602260045260246000fd5b50919050565b60006020828403121561177d57600080fd5b815161119581611565565b60006020828403121561179a57600080fd5b5051919050565b601f82111561104e57600081815260208120601f850160051c810160208610156117c85750805b601f850160051c820191505b818110156117e7578281556001016117d4565b505050505050565b815167ffffffffffffffff8111156118095761180961147e565b61181d816118178454611731565b846117a1565b602080601f831160018114611852576000841561183a5750858301515b600019600386901b1c1916600185901b1785556117e7565b600085815260208120601f198616915b8281101561188157888601518255948401946001909101908401611862565b508582101561189f5787850151600019600388901b60f8161c191681555b5050505050600190811b01905550565b60006bffffffffffffffffffffffff19808760601b16835285601484015284516118e081603486016020890161141b565b60609490941b16919092016034810191909152604801949350505050565b6000835161191081846020880161141b565b83519083019061192481836020880161141b565b01949350505050565b634e487b7160e01b600052601160045260246000fd5b808201808211156102eb576102eb61192d565b6000600182016119685761196861192d565b5060010190565b634e487b7160e01b600052601260045260246000fd5b6000826119945761199461196f565b500490565b818103818111156102eb576102eb61192d565b6000826119bb576119bb61196f565b500690565b634e487b7160e01b600052603260045260246000fdfea2646970667358221220c611521ff108f16f8e7151c9bc24339c0b8f352159155b4bbc71c9b5ec36c56b64736f6c63430008110033a26469706673582212200da6763b4e973c1435fad0fa978a08cb9127516c902f6fe780414bcb3ace0a5f64736f6c63430008110033",
  "linkReferences": {},
  "deployedLinkReferences": {}
}